:100000000C94E4000C940C010C940C010C940C0165
:100010000C940C010C940C010C940C010C940C012C
:100020000C940C010C940C010C9412040C94840498
:100030000C940C010C940C010C940C010C940C010C
:100040000C940C010C940C010C940C010C940C01FC
:100050000C940C010C940C010C940C010C94C8032E
:100060000C940C010C940C010C940C010C940C01DC
:100070000C940C010C940C010C940C010C940C01CC
:100080000C940C010C940C010C940C010C940C01BC
:100090000C940C010C940C010C940C010C940C01AC
:1000A0000C940C010C940C010C940C01CA07CD07A4
:1000B000BC07C007C407EE07EE07EE07D107D50758
:1000C000D907DF07E307EE07E907080B0002020282
:1000D00001000904000001020200000524001001D3
:1000E0000524010101042402060524060001070578
:1000F000810310004009040100020A000000070506
:1001000002024000000705830240000004030904C6
:1001100012010002EF02014041233680000101027A
:10012000030141726475696E6F204C4C430041724B
:100130006475696E6F204C656F6E6172646F00004C
:10014000000000250028002B002E003100000000D8
:1001500000240027002A002D0030000000000023AA
:1001600000260029002C002F0004040404040304CA
:100170000502020202040302020202060606060645
:100180000604040202020404040802011040804034
:1001900010204080408008020401804020100201AD
:1001A000108010204040200000000200090F0000D5
:1001B000030401000C00000000000000000000002B
:1001C000000000000000350811241FBECFEFDAE068
:1001D000DEBFCDBF11E0A0E0B1E0EEEAF0E102C089
:1001E00005900D92AA34B107D9F721E0AAE4B1E055
:1001F00001C01D92AB3BB207E1F710E0C4EED0E0C6
:1002000004C02197FE010E944A08C33ED107C9F7E6
:100210000E94C2060C9455080C94000020916A01BB
:10022000211103C08FEF9FEF08955FB7F89422E08C
:100230002093E9002091F20030E01216130614F426
:1002400021E030E0422FFC0184E6415038F028984C
:10025000809369019091F1009193F7CF21153105B9
:1002600021F08091F200882319F05FBFC901089541
:100270008BE68093E800F9CF2FB7F89483E0809362
:10028000E9009091E800892F807295FF04C0909159
:10029000F20080E4891B2FBF0895809161018111D4
:1002A0000DC082E080935D0184E080935E01109236
:1002B000600110925F0181E0809361018DE591E022
:1002C00008953FB7F8948091590190915A01A091F7
:1002D0005B01B0915C0126B5A89B05C02F3F19F0CA
:1002E0000196A11DB11D3FBFBA2FA92F982F8827B6
:1002F000820F911DA11DB11DBC01CD0142E0660F11
:10030000771F881F991F4A95D1F708958F929F9262
:10031000AF92BF92CF92DF92EF92FF926B017C017E
:100320000E9461014B015C01C114D104E104F1049C
:10033000F1F00E946101DC01CB0188199909AA0939
:10034000BB09883E9340A105B10570F321E0C21AB4
:10035000D108E108F10888EE880E83E0981EA11C00
:10036000B11CC114D104E104F10419F7DDCFFF90F1
:10037000EF90DF90CF90BF90AF909F908F900895B7
:1003800040914C0150914D0120914A0130914B0117
:1003900042175307B4F49091E8009570E1F39091FF
:1003A000E80092FD19C08093F10080914C0190917A
:1003B0004D0101968F739927892B19F48EEF809345
:1003C000E80080914C0190914D01019690934D0170
:1003D00080934C0181E0089580E00895DF92EF92D0
:1003E000FF920F931F93CF93DF93D82EF92EE42E15
:1003F000062F10E0C8010196880F0E94C00183E01B
:100400000E94C001CD2DDF2D0C0F1D1FC017D1077D
:1004100089F0E7FE03C0FE01849101C088810E943B
:10042000C001F82E80E00E94C0018F212196811129
:10043000EDCF01C081E0DF91CF911F910F91FF902F
:10044000EF90DF900895DF92EF92FF920F931F934A
:10045000CF93DF93D82E8A017B01E40EF51EEB01CA
:10046000CE15DF0571F0D7FE03C0FE01849101C0F7
:1004700088810E94C00121968111F2CF8FEF9FEFFA
:1004800001C0C801DF91CF911F910F91FF90EF90B4
:10049000DF9008950F931F93CF93DF931F92CDB7F3
:1004A000DEB782E0898342E450E06AEC70E080E8E5
:1004B0000E9423020E944D01DC0112960D911C91B5
:1004C00013970115110589F0D801ED91FC91028077
:1004D000F381E02DBE016F5F7F4FC801099597FD45
:1004E00004C0F80100851185ECCF89810F90DF9160
:1004F000CF911F910F910895615030F02091F1003C
:10050000FC0120830196F8CF289884E68093690146
:100510000895CF92DF92EF92FF920F931F93CF93A4
:10052000DF936C017A018B01C0E0D0E0CE15DF05CE
:1005300081F0D8016D918D01D601ED91FC91019072
:10054000F081E02DC6010995892B11F02196EECF9F
:100550007E01C701DF91CF911F910F91FF90EF9026
:10056000DF90CF9008958F929F92AF92BF92CF92DB
:10057000DF92EF92FF920F931F93CF93DF936C0163
:100580007B018A0180910B01882309F45CC0809172
:100590006A01882309F457C08091500180FF05C08B
:1005A0008091E00082608093E000E801B12C8AEF46
:1005B000A82E93E0892E2AE3922E209711F4BB20D7
:1005C000D9F10E943C0181110AC0AA94AA20D9F154
:1005D00061E070E080E090E00E948601EECF282F7D
:1005E00030E0C217D3070CF48C2F9FB7F894809299
:1005F000E9002091E80025FF1DC0282F30E0C21B34
:10060000D30BF701815020F041914093F100FACFD4
:10061000E20EF31EBB2019F09092E8000AC0809110
:10062000E80085FD07C09092E800BB24B3942097B2
:1006300009F0B12C9FBFC1CF5D9884E680934F0134
:100640001016110644F081E090E0F6019383828356
:1006500080E090E001C0C801DF91CF911F910F9120
:10066000FF90EF90DF90CF90BF90AF909F908F90D2
:100670000895CF93DF931F92CDB7DEB76983DC0176
:10068000ED91FC910280F381E02D41E050E0BE014C
:100690006F5F7F4F09950F90DF91CF91089583E0B1
:1006A0008093E9008091F200882319F08AE3809317
:1006B000E80008950E943C0190E00895CF93DF93F5
:1006C0001F92CDB7DEB7FC018485958597FD05C0E7
:1006D0002FEF3FEF358724870BC0CE0101960E9494
:1006E0000E01019719F4898190E002C08FEF9FEF0E
:1006F0000F90DF91CF9108950F931F93CF93DF93C6
:100700001F92CDB7DEB78C01FC018485958597FFDC
:100710000EC0CE0101960E940E01019719F4898145
:1007200090E002C08FEF9FEFF80195878487F80172
:10073000848595850F90DF91CF911F910F9108953A
:10074000FC018485958597FD0BC09FB7F89482E0E6
:100750008093E9008091F2009FBF90E00196089598
:100760009FB7F89482E08093E9008091F2009FBFE8
:1007700090E00895089580E090E0089542E050E010
:1007800065E271E08BE691E00C94B3020E945008A0
:100790001F920F920FB60F9211242F933F938F93B6
:1007A0009F93AF93BF938091550190915601A09173
:1007B0005701B09158013091540123E0230F2D3798
:1007C00020F40196A11DB11D05C026E8230F029655
:1007D000A11DB11D209354018093550190935601A2
:1007E000A0935701B09358018091590190915A01FB
:1007F000A0915B01B0915C010196A11DB11D809398
:10080000590190935A01A0935B01B0935C01BF9191
:10081000AF919F918F913F912F910F900FBE0F90AD
:100820001F9018951F920F920FB60F9211248F935D
:100830009F938091E1009091E100937F9093E1007C
:1008400083FF0FC01092E90091E09093EB001092AB
:10085000EC0092E39093ED0010926A0198E090937F
:10086000F00082FF20C093E09093E9009091F200A5
:10087000992319F09AE39093E80090914F019923FE
:1008800039F090914F01915090934F01992389F144
:1008900090916901992339F0909169019150909359
:1008A0006901992341F184FF10C08091E2008E7E9E
:1008B00081608093E2008091E1008F7E8093E1006F
:1008C000809150018E7E806111C080FF16C08091A2
:1008D000E2008E7E80618093E2008091E1008E7E56
:1008E0008093E100809150018E7E81608093500161
:1008F00004C05D9ACDCF289AD6CF9F918F910F904B
:100900000FBE0F901F9018951F920F920FB60F9267
:100910001124CF92DF92EF92FF920F931F932F93A8
:100920003F934F935F936F937F938F939F93AF9377
:10093000BF93EF93FF93CF93DF93CDB7DEB76C9761
:10094000DEBFCDBF1092E9008091E80083FFFBC1BC
:1009500068E0CE0145960E947C0282EF8093E80019
:100960008D8987FF05C09091E80090FFFCCF03C000
:100970009EEF9093E800982F907609F0C6C09E896C
:100980004F89588D2F89F88C91110CC0803829F42B
:10099000809151018093F10002C01092F1001092F9
:1009A000F10045C1913051F4811141C141305105EF
:1009B00009F03DC1809151018D7F0BC0933061F4EE
:1009C000811135C14130510509F031C1809151018A
:1009D0008260809351012BC1953049F48091E800E9
:1009E00080FFFCCF822F80688093E30020C1963087
:1009F00009F05EC00B8D1C8D22E01092E900109270
:100A00004D0110924C01F21232C010924B01109223
:100A10004A010E944A0299E0BE016F5F7F4FDB01ED
:100A2000E92F1D92EA95E9F79983FA8291E09E8376
:100A300090EA98879AEF998720914C0130914D0167
:100A4000275F3F4F3C832B838D831092E9001092E8
:100A50004D0110924C0110934B0100934A0149E063
:100A600050E080E00E9423020E944A02E0C01093FE
:100A70004B0100934A010E944D01DC0112960D9139
:100A80001C9113970115110509F4BBC0D801ED9114
:100A9000FC910480F581E02DBE016B5E7F4FC801A3
:100AA0000995009709F0C7C0F80100851185EACFC4
:100AB000973009F445C1983021F481E08093F1002A
:100AC000B6C0993009F0B3C0837009F039C1EFE1C5
:100AD000F1E081E031E096E32081211109C08EE749
:100AE0008093EA001092EA008F8980936A019FC088
:100AF0008093E9003093EB0021912093EC009093D8
:100B0000ED008F5F873041F7EACF8B8D9C8D10927F
:100B1000E90010924D0110924C0190934B0180938B
:100B20004A01898D811153C08E899D89913A49F47A
:100B3000813209F005C147E050E064E071E080E0F7
:100B4000BBC0913209F0FCC0833269F48F89988D63
:100B5000A0E0B0E08093000190930101A093020116
:100B6000B093030164C0803269F48091E80082FF91
:100B7000FCCF67E084E091E00E947C028BEF8093E1
:100B8000E80055C0823209F052C08F8980930B0172
:100B9000EEEFFFE7859194918B3F9C4D19F0E0E0DB
:100BA000F8E002C0EEEFFAE08091040190910501B7
:100BB000A0910601B0910701803B9440A105B105C9
:100BC00009F09EC080910B0180FF79C099C00E94FE
:100BD0004D01FC01028113810115110509F4B0C01A
:100BE000D801ED91FC910190F081E02DBE016B5E8A
:100BF0007F4FC801099581111AC0F8010085118540
:100C0000EBCFF1E0FF1609F44EC0F3E0FF1298C0FD
:100C10008F89882309F44AC0823089F440E860E172
:100C20008EE291E00E94EE01882309F489C08EEFE4
:100C30008093E80088C018161906CCF381C0813073
:100C400029F440E86BE082E291E0ECCF833009F0D8
:100C500077C00E944D01DC011296ED90FC90139735
:100C60008E010F5F1F4F6801E114F10479F0D70185
:100C7000ED91FC910680F781E02DB801C70109953F
:100C8000080F111DF701E084F184EECFD8011C920A
:100C9000F60101900020E9F73197BF016C197D0939
:100CA00040E0C601BFCF60E171E002C06CE071E0DE
:100CB000FB01449150E080E80E942302B8CFEE3F50
:100CC0002AE0F20751F0808191818737A7E79A07E0
:100CD00021F09093FF0A8093FE0A87E797E79183BC
:100CE00080838091600080934E019BE088E10FB685
:100CF000F894A895809360000FBE9093600097CF02
:100D0000808191818737974709F091CFA89580918D
:100D1000600088618093600080914E018093600044
:100D2000EE3FBAE0FB0739F08091FE0A9091FF0A8E
:100D3000918380837CCF1092FF0A1092FE0A77CFB6
:100D400081E28093EB006C960FB6F894DEBF0FBE85
:100D5000CDBFDF91CF91FF91EF91BF91AF919F9167
:100D60008F917F916F915F914F913F912F911F9143
:100D70000F91FF90EF90DF90CF900F900FBE0F90EC
:100D80001F901895789484B5826084BD84B5816085
:100D900084BD85B5826085BD85B5816085BD809146
:100DA0006E00816080936E001092810080918100BE
:100DB00082608093810080918100816080938100B6
:100DC000809180008160809380008091910082609A
:100DD0008093910080919100816080939100809137
:100DE00090008160809390008091C1008460809326
:100DF000C1008091C10082608093C1008091C100D8
:100E000081608093C1008091C30081608093C300A2
:100E10008091C00082608093C0008091C200816098
:100E20008093C20080917A00846080937A008091E0
:100E30007A00826080937A0080917A00816080934A
:100E40007A0080917A00806880937A0010926A011B
:100E500010925101109250018091D70081608093CF
:100E6000D70080EA8093D80089B5806189BD89B5B3
:100E7000826089BD09B400FEFDCF61E070E080E0D2
:100E800090E00E9486018091D8008F7C80618093E1
:100E9000D8008091E000807F8093E0008091E100A5
:100EA0008E7E8093E1008DE08093E200559A209A37
:100EB000E5E9F1E02491E6E7F1E08491882399F0F7
:100EC00090E0880F991FFC01E35BFE4FA591B49160
:100ED000FC01E15CFE4F859194918FB7F894EC9101
:100EE000E22BEC938FBFCAE8D1E0FE0124910BE620
:100EF00011E0F80184918823C9F090E0880F991FD0
:100F0000FC01E35BFE4FA591B491FC01E15CFE4F57
:100F1000459154913FB7F8949C91822F80959823E6
:100F20009C93FA019081892380833FBF8FEF9FEFCD
:100F3000909378018093770199EAE92E91E0F92E58
:100F400020E0C22E20E0D22EAA24A394B12CF701D7
:100F50004491FE019491F8018491882309F449C0D9
:100F60004423E1F150E0FA013197EF30F105B0F59B
:100F7000EA5AFF4F0C944A08209180002F7707C04F
:100F8000209180002F7D03C020918000277F209337
:100F9000800024C024B52F7702C024B52F7D24BD46
:100FA0001DC0209190002F7707C0209190002F7DC9
:100FB00003C020919000277F209390000FC02091C4
:100FC000C0002F7703C02091C0002F7D2093C00068
:100FD00005C02091C200277F2093C200E82FF0E0D7
:100FE000EE0FFF1FE55AFE4FA591B4918C91892316
:100FF00009F568EC70E080E090E00E948601809145
:10100000520190915301019771F44FE050E069E370
:1010100071E08BE691E00E94B3020E94BE03109241
:10102000530110925201C114D10409F490CF0E94CF
:1010300000008DCF64E670E080E090E00E948601C1
:101040008091520190915301892B69F740E150E062
:1010500068E271E08BE691E00E94B3020E94BE0359
:10106000B0925301A0925201DECFEBE6F1E0138281
:10107000128288EE93E0A0E0B0E084839583A6839B
:10108000B78380E191E0918380838FEF9FEF958715
:1010900084870895EE0FFF1F0590F491E02D0994C9
:0E10A00081E090E0F8940C945508F894FFCF8E
:1010AE00FFFFFFFF00E10000000000000000000055
:1010BE003903B3025A034F03A0035E037C0300C13E
:1010CE0080810000000D0A004D6F74696F6E206400
:1010DE006574656374656421004D6F74696F6E206D
:0A10EE0073746F70706564210000D8
:00000001FF
