:100000000C94E5000C940D010C940D010C940D0161
:100010000C940D010C940D010C940D010C940D0128
:100020000C940D010C940D010C94DA020C944C0309
:100030000C940D010C940D010C940D010C940D0108
:100040000C940D010C940D010C940D010C940D01F8
:100050000C940D010C940D010C940D010C942A08C4
:100060000C940D010C940D010C940D010C940D01D8
:100070000C940D010C940D010C940D010C940D01C8
:100080000C940D010C940D010C940D010C940D01B8
:100090000C940D010C940D010C940D010C940D01A8
:1000A0000C940D010C940D010C940D016007630775
:1000B000520756075C0784078407840767076B07A6
:1000C0006F077507790784077F07080B0002020294
:1000D00001000904000001020200000524001001D3
:1000E0000524010101042402060524060001070578
:1000F000810310004009040100020A000000070506
:1001000002024000000705830240000004030904C6
:1001100012010002EF02014041233680000101027A
:10012000030141726475696E6F204C4C430041724B
:100130006475696E6F204C656F6E6172646F00004C
:100140000000002300260029002C002F00000000E2
:1001500000240027002A002D0030000000000200CB
:10016000090F0000030401000C0000000000000063
:100170000000000000000000000004080201104020
:100180008040102040804080080204018040201000
:1001900002011080102040402000000000250028AF
:1001A000002B002E003100040404040403040502A3
:1001B0000202020403020202020606060606060402
:1001C000040202020404C70AB70A11241FBECFEFBB
:1001D000DAE0DEBFCDBF11E0A0E0B1E0E0E8F9E198
:1001E00002C005900D92AA33B107D9F721E0AAE326
:1001F000B1E001C01D92A43DB207E1F710E0C4EEEA
:10020000D0E004C02197FE010E94870BC33ED107B6
:10021000C9F70E94A9080C94B30C0C9400004091FB
:100220003C0150913D0120913A0130913B01421730
:100230005307B4F49091E8009570E1F39091E800D1
:1002400092FD19C08093F10080913C0190913D0195
:1002500001968F739927892B19F48EEF8093E8000C
:1002600080913C0190913D01019690933D018093D6
:100270003C0181E0089580E00895DF92EF92FF92C3
:100280000F931F93CF93DF93D82E8A017B01E40E47
:10029000F51EEB01CE15DF0571F0D7FE03C0FE01A0
:1002A000849101C088810E940F0121968111F2CFB3
:1002B0008FEF9FEF01C0C801DF91CF911F910F9188
:1002C000FF90EF90DF900895615030F02091F100A1
:1002D000FC0120830196F8CF289884E6809346019C
:1002E0000895CF92DF92EF92FF920F931F93CF93D7
:1002F000DF936C017A018B01C0E0D0E0CE15DF0501
:1003000081F0D8016D918D01D601ED91FC910190A4
:10031000F081E02DC6010995892B11F02196EECFD1
:100320007E01C701DF91CF911F910F91FF90EF9058
:10033000DF90CF900895CF93DF931F92CDB7DEB7B4
:100340006983DC01ED91FC910280F381E02D41E0B5
:1003500050E0BE016F5F7F4F09950F90DF91CF9105
:10036000089583E08093E9008091F200882319F0DA
:100370008AE38093E8000895FC018485958597FDC4
:100380000BC09FB7F89482E08093E9008091F2005F
:100390009FBF90E0019608959FB7F89482E0809304
:1003A000E9008091F2009FBF90E00895089580E0F9
:1003B00090E008950E94AE0C0F931F93CF93DF93AC
:1003C0001F92CDB7DEB782E0898342E450E06AEC49
:1003D00070E080E80E943D010E943407DC01129623
:1003E0000D911C9113970115110589F0D801ED911C
:1003F000FC910280F381E02DBE016F5F7F4FC80149
:10040000099597FD04C0F80100851185ECCF89811D
:100410000F90DF91CF911F910F9108958F929F922E
:10042000AF92BF92CF92DF92EF92FF920F931F9302
:10043000CF93DF936C017B018A0180910B018823AC
:1004400009F45CC080914701882309F457C080916A
:10045000400180FF05C08091E00082608093E00051
:10046000E801B12C8AEFA82E93E0892E2AE3922E80
:10047000209711F4BB20D9F10E94230781110AC0F3
:10048000AA94AA20D9F161E070E080E090E00E9497
:10049000F007EECF282F30E0C217D3070CF48C2FD3
:1004A0009FB7F8948092E9002091E80025FF1DC0D5
:1004B000282F30E0C21BD30BF701815020F041916F
:1004C0004093F100FACFE20EF31EBB2019F0909298
:1004D000E8000AC08091E80085FD07C09092E8001E
:1004E000BB24B394209709F0B12C9FBFC1CF5D9876
:1004F00084E680933F011016110644F081E090E0FD
:10050000F6019383828380E090E001C0C801DF910F
:10051000CF911F910F91FF90EF90DF90CF90BF9000
:10052000AF909F908F9008950E94230790E00895C8
:100530000F931F93CF93DF931F92CDB7DEB78C013C
:10054000FC018485958597FF0EC0CE0101960E941F
:10055000F506019719F4898190E002C08FEF9FEFB3
:10056000F80195878487F801848595850F90DF9140
:10057000CF911F910F910895CF93DF931F92CDB725
:10058000DEB7FC018485958597FD05C02FEF3FEF11
:10059000358724870BC0CE0101960E94F50601978E
:1005A00019F4898190E002C08FEF9FEF0F90DF91E7
:1005B000CF9108951F920F920FB60F9211248F932F
:1005C0009F938091E1009091E100937F9093E100EF
:1005D00083FF0FC01092E90091E09093EB0010921E
:1005E000EC0092E39093ED001092470198E0909315
:1005F000F00082FF20C093E09093E9009091F20018
:10060000992319F09AE39093E80090913F01992380
:1006100039F090913F01915090933F01992389F1D6
:1006200090914601992339F0909146019150909311
:100630004601992341F184FF10C08091E2008E7E33
:1006400081608093E2008091E1008F7E8093E100E1
:10065000809140018E7E806111C080FF16C0809124
:10066000E2008E7E80618093E2008091E1008E7EC8
:100670008093E100809140018E7E816080934001F3
:1006800004C05D9ACDCF289AD6CF9F918F910F90BD
:100690000FBE0F901F9018951F920F920FB60F92DA
:1006A0001124CF92DF92EF92FF920F931F932F931B
:1006B0003F934F935F936F937F938F939F93AF93EA
:1006C000BF93EF93FF93CF93DF93CDB7DEB76C97D4
:1006D000DEBFCDBF1092E9008091E80083FFFBC12F
:1006E00068E0CE0145960E94640182EF8093E800A5
:1006F0008D8987FF05C09091E80090FFFCCF03C073
:100700009EEF9093E800982F907609F0C6C09E89DE
:100710004F89588D2F89F88C91110CC0803829F49D
:10072000809141018093F10002C01092F10010927B
:10073000F10045C1913051F4811141C14130510561
:1007400009F03DC1809141018D7F0BC0933061F470
:10075000811135C14130510509F031C1809141010C
:100760008260809341012BC1953049F48091E8006B
:1007700080FFFCCF822F80688093E30020C19630F9
:1007800009F05EC00B8D1C8D22E01092E9001092E2
:100790003D0110923C01F21232C010923B011092C6
:1007A0003A010E94DC0199E0BE016F5F7F4FDB01DF
:1007B000E92F1D92EA95E9F79983FA8291E09E83E9
:1007C00090EA98879AEF998720913C0130913D01FA
:1007D000275F3F4F3C832B838D831092E90010925B
:1007E0003D0110923C0110933B0100933A0149E016
:1007F00050E080E00E943D010E94DC01E0C01093C7
:100800003B0100933A010E943407DC0112960D91DE
:100810001C9113970115110509F4BBC0D801ED9186
:10082000FC910480F581E02DBE016B5E7F4FC80115
:100830000995009709F0C7C0F80100851185EACF36
:10084000973009F445C1983021F481E08093F1009C
:10085000B6C0993009F0B3C0837009F039C1E3E143
:10086000F1E081E031E096E32081211109C08EE7BB
:100870008093EA001092EA008F89809347019FC01D
:100880008093E9003093EB0021912093EC0090934A
:10089000ED008F5F873041F7EACF8B8D9C8D1092F2
:1008A000E90010923D0110923C0190933B0180932E
:1008B0003A01898D811153C08E899D89913A49F4FD
:1008C000813209F005C147E050E064E071E080E06A
:1008D000BBC0913209F0FCC0833269F48F89988DD6
:1008E000A0E0B0E08093000190930101A093020189
:1008F000B093030164C0803269F48091E80082FF04
:10090000FCCF67E084E091E00E9464018BEF80936C
:10091000E80055C0823209F052C08F8980930B01E4
:10092000EEEFFFE7859194918B3F9C4D19F0E0E04D
:10093000F8E002C0EEEFFAE0809104019091050129
:10094000A0910601B0910701803B9440A105B1053B
:1009500009F09EC080910B0180FF79C099C00E9470
:100960003407FC01028113810115110509F4B0C09F
:10097000D801ED91FC910190F081E02DBE016B5EFC
:100980007F4FC801099581111AC0F80100851185B2
:10099000EBCFF1E0FF1609F44EC0F3E0FF1298C070
:1009A0008F89882309F44AC0823089F440E860E1E5
:1009B0008EE291E00E947408882309F489C08EEFCA
:1009C0008093E80088C018161906CCF381C08130E6
:1009D00029F440E86BE082E291E0ECCF833009F04B
:1009E00077C00E943407DC011296ED90FC901397BB
:1009F0008E010F5F1F4F6801E114F10479F0D701F8
:100A0000ED91FC910680F781E02DB801C7010995B1
:100A1000080F111DF701E084F184EECFD8011C927C
:100A2000F60101900020E9F73197BF016C197D09AB
:100A300040E0C601BFCF60E171E002C06CE071E050
:100A4000FB01449150E080E80E943D01B8CFEE3FA9
:100A50002AE0F20751F0808191818737A7E79A0752
:100A600021F09093FF0A8093FE0A87E797E791832E
:100A700080838091600080933E019BE088E10FB607
:100A8000F894A895809360000FBE9093600097CF74
:100A9000808191818737974709F091CFA895809100
:100AA000600088618093600080913E0180936000C7
:100AB000EE3FBAE0FB0739F08091FE0A9091FF0A01
:100AC000918380837CCF1092FF0A1092FE0A77CF29
:100AD00081E28093EB006C960FB6F894DEBF0FBEF8
:100AE000CDBFDF91CF91FF91EF91BF91AF919F91DA
:100AF0008F917F916F915F914F913F912F911F91B6
:100B00000F91FF90EF90DF90CF900F900FBE0F905E
:100B10001F9018953FB7F8948091C0019091C10142
:100B2000A091C201B091C30126B5A89B05C02F3F7B
:100B300019F00196A11DB11D3FBFBA2FA92F982F03
:100B40008827820F911DA11DB11DBC01CD0142E07E
:100B5000660F771F881F991F4A95D1F708950F9345
:100B60001F93CF93DF93CDB7DEB729970FB6F894D5
:100B7000DEBF0FBECDBF8091A0019091A101892B56
:100B800009F4A2C00E948A050091A6011091A70154
:100B90002091A8013091A901DC01CB01801B910BB0
:100BA000A20BB30B8C329140A105B10558F3F89418
:100BB00080919C0190919D019A838983E091A0018D
:100BC000F091A101DF0111968081898790919801B0
:100BD000E091AA01F091AB018091AC01992309F455
:100BE0002EC09081982B98879081809589238F8340
:100BF0008F818C8388E08B8358856F8149853B8109
:100C00002C8189819A81508347FD252F3A95208335
:100C1000262F39F0441F00C000006083000000C090
:100C2000F2CF38E04D9160830000019761F7F093B7
:100C3000AB01E093AA0149873B832C8338C09081A4
:100C4000982B98879081809589238F838F818E83BD
:100C500088E08D8358856F8149853D812E8189810A
:100C60009A81508347FD252F00C000C0208300C01B
:100C700000C000C000C000C060830000262F3A956D
:100C800041F0441F000000C000C000C000C000C010
:100C9000E8CF38E04D9100C0608300C0019709F7AC
:100CA000F093AB01E093AA0149873D832E839A8399
:100CB000898378940E948A056093A6017093A701A6
:100CC0008093A8019093A90129960FB6F894DEBFEE
:100CD0000FBECDBFDF91CF911F910F9108958F92DD
:100CE0009F92AF92BF92CF92DF92EF92FF92CF93FB
:100CF000DF9320919A0130919B018217930708F0AE
:100D000057C04B01AA24BB24F82DC52ED62EE72EA2
:100D1000FF24AC2DE42F20919F01222361F0829EBD
:100D200040011124F92D2C9D60011124AD2D249F2B
:100D3000E0011124ED2F3091A501B091A201E090C6
:100D4000A001F090A1013B1308C09C01220F331FAA
:100D5000820F931F8E0D9F1D19C0880F991F880F3A
:100D6000991F8E0D9F1D472F552766277727EC016A
:100D7000C30FD11D222349F030E0249F7001259F2D
:100D8000F00C349FF00C11244F2D48832091A201C8
:100D9000EC01C20FD11DF8832091A301EC01C20F19
:100DA000D11DA8832091A401DC01A20FB11DEC93F9
:100DB000DF91CF91FF90EF90DF90CF90BF90AF90F9
:100DC0009F908F900895009769F0FC01019000209A
:100DD000E9F73197AF01481B590BBC0188E491E05A
:100DE0000C940E0280E090E00895209147012111BB
:100DF00003C08FEF9FEF08955FB7F89422E0209330
:100E0000E9002091F20030E01216130614F421E0FC
:100E100030E0422FFC0184E6415038F0289880935E
:100E200046019091F1009193F7CF2115310521F002
:100E30008091F200882319F05FBFC90108958BE605
:100E40008093E800F9CF2FB7F89483E08093E9000E
:100E50009091E800892F807295FF04C09091F20074
:100E600080E4891B2FBF08958091C80181110DC0B6
:100E700082E08093C40184E08093C5011092C70191
:100E80001092C60181E08093C80184EC91E008953E
:100E900090E0FC013197EF30F105B0F5EA5AFF4FD1
:100EA0000C94870B809180008F7703C08091800025
:100EB0008F7D80938000089580918000877FF9CF97
:100EC00084B58F7702C084B58F7D84BD08958091ED
:100ED00090008F7707C0809190008F7D03C0809134
:100EE0009000877F8093900008958091C0008F7755
:100EF00003C08091C0008F7D8093C00008958091D1
:100F0000C200877F8093C20008951F93CF93DF9321
:100F1000282F30E0F901E55AFE4F8491F901E65897
:100F2000FE4FD491F901E955FE4FC491CC23C1F095
:100F3000162F81110E944807EC2FF0E0EE0FFF1FE3
:100F4000E756FE4FA591B4919FB7F894111104C0D4
:100F50008C91D095D82302C0EC91DE2BDC939FBFFF
:100F6000DF91CF911F910895CF93DF9390E0FC0123
:100F7000E658FE4F2491FC01E955FE4F84918823E9
:100F800061F190E0880F991FFC01E35BFE4FC59172
:100F9000D491FC01E756FE4FA591B491611109C0AF
:100FA0009FB7F8948881209582238883EC912E2323
:100FB0000BC0623061F49FB7F8948881322F30956E
:100FC00083238883EC912E2B2C939FBF06C08FB771
:100FD000F894E8812E2B28838FBFDF91CF9108955D
:100FE0008F929F92AF92BF92CF92DF92EF92FF9239
:100FF0006B017C010E948A054B015C01C114D10484
:10100000E104F104F1F00E948A05DC01CB018819AA
:101010009909AA09BB09883E9340A105B10570F35F
:1010200021E0C21AD108E108F10888EE880E83E0B9
:10103000981EA11CB11CC114D104E104F10419F7DC
:10104000DDCFFF90EF90DF90CF90BF90AF909F905B
:101050008F9008951F920F920FB60F9211242F9325
:101060003F938F939F93AF93BF9380914201909151
:101070004301A0914401B09145013091BF0123E0AB
:10108000230F2D3720F40196A11DB11D05C026E8C0
:10109000230F0296A11DB11D2093BF018093420131
:1010A00090934301A0934401B09345018091C00106
:1010B0009091C101A091C201B091C3010196A11DFF
:1010C000B11D8093C0019093C101A093C201B09360
:1010D000C301BF91AF919F918F913F912F910F903D
:1010E0000FBE0F901F901895DF92EF92FF920F9313
:1010F0001F93CF93DF93D82EF92EE42E062F10E006
:10110000C8010196880F0E940F0183E00E940F0121
:10111000CD2DDF2D0C0F1D1FC017D10789F0E7FE65
:1011200003C0FE01849101C088810E940F01F82E46
:1011300080E00E940F018F2121968111EDCF01C027
:1011400081E0DF91CF911F910F91FF90EF90DF90A1
:101150000895789484B5826084BD84B5816084BD2F
:1011600085B5826085BD85B5816085BD80916E0045
:10117000816080936E001092810080918100826076
:1011800080938100809181008160809381008091B3
:1011900080008160809380008091910082608093C4
:1011A00091008091910081608093910080919000E6
:1011B0008160809390008091C10084608093C10021
:1011C0008091C10082608093C1008091C1008160E4
:1011D0008093C1008091C30081608093C30080919F
:1011E000C00082608093C0008091C20081608093C3
:1011F000C20080917A00846080937A0080917A00A6
:10120000826080937A0080917A00816080937A0076
:1012100080917A00806880937A0010924701109242
:101220004101109240018091D70081608093D700E6
:1012300080EA8093D80089B5806189BD89B58260D4
:1012400089BD09B400FEFDCF61E070E080E090E070
:101250000E94F0078091D8008F7C80618093D80035
:101260008091E000807F8093E0008091E1008E7E9D
:101270008093E1008DE08093E200559A209A8FEFF1
:101280009FEF909355018093540180919E0187FDBB
:1012900008C061E00E94B40760E080919E010E9456
:1012A000850781E08093990160919F01633321F16B
:1012B0002091A0013091A101615031F070E08FEFD9
:1012C00092E30E94730B02C060E070E0F90140916C
:1012D0009C0150919D01CF01821B930B84179507B0
:1012E00040F44081469FC001479F900D1124919387
:1012F000EECF83E380939F010E94AF0500EF10E0E3
:101300003BEEE32EF12C42EFC42ED12C50E0A52E63
:1013100050E0B52E88248A94982C77247394809179
:10132000AF0180FF02C0826001C08D7F8093AF015A
:101330002091AD0130E0F901E55AFE4F8491F901A9
:10134000E658FE4FC491F901E955FE4FD491DD23D3
:10135000A1F081110E944807ED2FF0E0EE0FFF1F72
:10136000E15CFE4FA591B491EC91CE2391E080E039
:1013700009F490E0292F382F02C020E030E040919E
:10138000AE0150E08091AF014217530711F48E7FF8
:1013900001C081608093AF018091AF01282F30E0C0
:1013A000A901559547952427352720FF42C080FF86
:1013B00024C08091BC019091BD0101969093BD0124
:1013C0008093BC01E091B401F091B501309719F020
:1013D0008DEA91E009952FB7F894809142019091A0
:1013E0004301A0914401B09145012FBF9093B101F9
:1013F0008093B0011092BE0116C0E091B601F09149
:10140000B701309719F08DEA91E00995E091B801A4
:10141000F091B901309719F08DEA91E00995909219
:10142000B1018092B0018091AF0184608093AF01DF
:1014300036C08B7F8093AF018091B0019091B10154
:10144000019669F18091BE01811129C08FB7F8948E
:1014500040914201509143016091440170914501D6
:101460008FBF8091B0019091B101481B590B610968
:1014700071098091B2019091B301A0E0B0E08417AE
:101480009507A607B70758F4E091BA01F091BB01A0
:10149000309729F08DEA91E009957092BE01809114
:1014A000AF018570853009F059C082E391E00E9458
:1014B000E3068BE291E00E94E306C8E7D0E040E05B
:1014C00050E06FEF70E0CE010E946F0640E050E008
:1014D0006FEF70E0C8018C1B9D0B0E946F0640E00F
:1014E00050E0BA01CE0105960E946F0640E050E040
:1014F000BA01C7018C1B9D0B0E946F060E94AF05AD
:101500006AE070E080E090E00E94F0072197C63822
:101510008FEFD807A1F6C0E0D0E0219640E050E080
:10152000BA01CE010E946F0640E050E0BA01C60148
:101530008C1B9D0B0E946F060E94AF05C530D10524
:1015400061F768EE70E080E090E00E94F007A1147F
:10155000B10409F4E4CE0E940000DFCE8EE291E0F7
:101560000E94E3068BE291E00E94E306F0CF8091B7
:10157000A0019091A101009711F00E94250C80918B
:101580009E0187FD03C060E00C94B4070895CF93DB
:10159000DF9310924B0110924A0188EE93E0A0E095
:1015A000B0E080934C0190934D01A0934E01B09315
:1015B0004F018DE191E090934901809348018FEFB5
:1015C0009FEF90935501809354018CE08093AD017F
:1015D00060E00E94B407C1E0C093AE0161E0809179
:1015E000AD010E9485071092AF018091AE0181117B
:1015F00002C0C093AF011092B5011092B4011092D5
:10160000B7011092B6011092B9011092B801109270
:10161000BB011092BA011092BD011092BC0181E091
:101620008093BE011092990110929F011092A60121
:101630001092A7011092A8011092A9018093A50110
:101640008093A2011092A30192E09093A401809351
:101650009801C0EDD2E0D0939D01C0939C0180ED34
:1016600092E00E948D0B9093A1018093A0010097BE
:1016700069F0FC019E01119221503040E1F780EFAA
:1016800090E090939B0180939A0108C010929D0175
:1016900010929C0110929B0110929A0183E080931A
:1016A0009E0180919901882341F061E083E00E94CE
:1016B000B40760E083E00E948507EAEAF1E0E49184
:1016C000F0E0EE0FFF1FE756FE4F85919491909347
:1016D000AB018093AA01EDE7F1E0E491E093AC0166
:1016E000DF91CF910895AA1BBB1B51E107C0AA1F30
:1016F000BB1FA617B70710F0A61BB70B881F991FB3
:101700005A95A9F780959095BC01CD010895EE0FEB
:10171000FF1F0590F491E02D09940F931F93CF9331
:10172000DF938230910510F482E090E0E091D201E5
:10173000F091D30120E030E0A0E0B0E0309719F163
:10174000408151810281138148175907C8F08417DD
:10175000950769F4109731F012960C93129713962F
:101760001C9327C00093D2011093D30122C02115EE
:10177000310519F04217530718F49A01BD01EF0122
:10178000DF01F801DBCF21153105F9F0281B390BFA
:101790002430310580F48A819B816115710521F027
:1017A000FB019383828304C09093D3018093D20181
:1017B000FE01329644C0FE01E20FF31F8193919324
:1017C00022503109398328833AC02091D0013091C9
:1017D000D101232B41F420910E0130910F01309360
:1017E000D1012093D00120910C0130910D012115E0
:1017F000310541F42DB73EB74091100150911101D0
:10180000241B350BE091D001F091D101E217F307D1
:10181000A0F42E1B3F0B2817390778F0AC014E5F60
:101820005F4F2417350748F04E0F5F1F5093D101CB
:101830004093D0018193919302C0E0E0F0E0CF01AA
:10184000DF91CF911F910F910895CF93DF93009770
:1018500009F481C0FC01329713821282A091D20157
:10186000B091D301109781F420813181820F931FB1
:101870002091D0013091D1012817390751F5F0930B
:10188000D101E093D00167C0ED0120E030E0CE1738
:10189000DF0740F44A815B819E0141155105F1F05B
:1018A000EA01F5CFD383C28340815181840F951F14
:1018B000C817D90759F488819981840F951F02961A
:1018C000918380838A819B81938382832115310553
:1018D00029F4F093D301E093D2013DC0E901FB83E9
:1018E000EA8349915991C40FD51FEC17FD0761F4A4
:1018F00080819181840F951F0296E90199838883E5
:10190000828193819B838A83E0E0F0E012968D913F
:101910009C911397009719F0FD01DC01F7CF8D9191
:101920009C9111979D012E5F3F4F820F931F209135
:10193000D0013091D1012817390769F4309729F483
:101940001092D3011092D20102C013821282B0937E
:10195000D101A093D001DF91CF91089581E090E073
:10196000F8940C94B30C10E0C4EED0E004C0FE0177
:101970000E94870B2196C53ED107C9F7F894FFCF87
:10198000FFFFFFFF00E10000000000000000D401A5
:10199000800000C18081000000000000009B010E5B
:1019A000029402B101BC01BC0298020D0A006E6FE4
:0A19B00074207072657373656400A3
:00000001FF
